:020000040800F2
:1000000080110024250C0008192F0008110C00088D
:10001000110C0008110C0008110C00080000000071
:100020000000000000000000000000005D0C00085F
:10003000110C000800000000F10D0008C91A0008AA
:10004000690E0008690E0008690E0008690E0008B4
:10005000690E0008690E0008690E0008690E0008A4
:10006000690E0008690E0008690E0008690E000894
:10007000690E0008690E0008690E0008690E000884
:10027C0053B94AB9002908BF00281CBF4FF0FF3101
:10028C004FF0FF3000F00CB8ADF1080C6DE904CE66
:10029C0000F008F8DDF804E0DDE9022304B0704753
:1002AC00704700BF2DE9F0478C468E46089E1546D8
:1002BC0004461946002B40F0D080724547D9B2FA5B
:1002CC0082F74FB1C7F120030EFA07FC20FA03F3B3
:1002DC00BD4043EA0C0CBC404FEA154EA8B2BCFB27
:1002EC00FEF8230C0EFB18CC08FB00F943EA0C4378
:1002FC00994528D9EB1808F1FF3204D2994502D957
:10030C00A8F102022B44A3EB0903A4B2B3FBFEFC3D
:10031C000EFB1C330CFB00F044EA0344A04214D93E
:10032C002C190CF1FF3304D2A04202D9ACF1020318
:10033C002C44241A43EA02401EB1FC4000233460D2
:10034C007360BDE8F0874246DDE76346F1E7002ABB
:10035C0079D0B2FA82F3002B3FD01946C1F12003B9
:10036C0002FA01F52EFA03F20EFA01FE20FA03F35B
:10037C0043EA0E034FEA154E00FA01F4B2FBFEFC01
:10038C00AFB20EFB1C201A0C0CFB07F842EA004221
:10039C0090455AD9AA180CF1FF3004D2904502D9D5
:1003AC00ACF102002A44A2EB08029BB2B2FBFEFCA9
:1003BC000EFB1C220CFB07F743EA02439F4246D973
:1003CC00EB180CF1FF3204D29F4202D9ACF10202BD
:1003DC002B44DB1B42EA004202E0AEEB020301229B
:1003EC004FEA154EAFB2B3FBFEFC200C0EFB1C33D8
:1003FC000CFB07F840EA034398452AD9EB180CF19B
:10040C00FF3004D2984502D9ACF102002B44A3EB87
:10041C000803A4B2B3FBFEFC0EFB1C330CFB07F76A
:10042C0044EA0344A74216D92C190CF1FF3304D229
:10043C00A74202D9ACF102032C44E41B43EA00406E
:10044C000F46114678E71F2188E76046ABE7624606
:10045C00BFE76046DBE76346EFE7734506D916B99D
:10046C00002108466DE7C6E9000EF9E7B3FA83F7F9
:10047C0087B9734501D3824207D8841A6EEB030304
:10048C0001209C461EB900215BE73846FAE7C6E915
:10049C00004CF8E7C7F1200CBB4022FA0CF51D43C9
:1004AC0020FA0CF12EFA0CF30EFA07FE41EA0E01BB
:1004BC004FEA154900FA07F4B3FBF9F81FFA85FE69
:1004CC0009FB18300B0C08FB0EFA43EA00439A4563
:1004DC0002FA07F240D9EB1808F1FF3004D29A4522
:1004EC0002D9A8F102002B44A3EB0A0389B2B3FB97
:1004FC00F9F809FB183308FB0EFE41EA03418E455F
:10050C002CD9691808F1FF3304D28E4502D9A8F111
:10051C000203294443EA0040A0FB0298A1EB0E0120
:10052C004145CE46434602D306D14C4504D2B9EBE5
:10053C00020E68EB05030138002EA4D0B4EB0E02BA
:10054C0061EB030101FA0CFC22FA07F34CEA0303FA
:10055C00F940C6E9003196E74046C5E74346D9E77E
:10056C00044C08B52168044802F00EF923680133E5
:10057C002360F7E73002002408410008024808B560
:10058C0002F03EFC002008BD1A410008014B1B681C
:10059C00184700BF00000024014B1860704700BFD3
:1005AC000000002430B5044685B00D461022002111
:1005BC00684603F06DF802232A4621468DF8023076
:1005CC006846034B019302F0F1F805B030BD00BF53
:1005DC0099050008054B00205A6822F002025A6067
:1005EC005A6822F001025A60704700BF0010005C8C
:1005FC0008B5416805480C3183681B681BB19847E6
:10060C0000EAE07008BD6FF05700F9E72C380008DD
:10061C000A2810B502D90024204610BD044B53F80B
:10062C002040204602F080FF0028F5D1F3E700BF00
:10063C00AC3F00084FF000530021034A43F8041B61
:10064C009342FBD1704700BF0000022008B500F0B8
:10065C004BFC00F01BFC0C4B0C4A1A600C4AD36888
:10066C0023F0070343F00203D3600A4B1A6841F2EC
:10067C000303B3EB124F06D1074AD2F8083143F00B
:10068C000103C2F8083108BD2C0000240090D003EF
:10069C00004802580010005C00800051014B0360C0
:1006AC00012070471C40000880B505460E461746D1
:1006BC00984601F079FEDFF82090034600F0E0FB4D
:1006CC000446424649F8003039463046A84754F8AB
:1006DC00090000F071FB00BF080000000648002173
:1006EC00064A08B5121A02F009FC0548054A002111
:1006FC00121A02F003FC08BD8000002498030024A9
:10070C0000000020000000200A480B4A0B49121A76
:10071C0008B502F0F5FB0A480A4A0B49121A02F016
:10072C00EFFB0A480A4A0B49121ABDE8084002F0CE
:10073C00E7BB00BF0000002480000024B84600087E
:10074C000000002400000024B8460008000000202F
:10075C00000000203847000838B505460C4699B112
:10076C001048D1E90123096802F04AFBE1680E4800
:10077C00D4E9042302F044FBE1690C4802F040FB8D
:10078C00A1690B4802F03CFB012D05D1EFF305816B
:10079C000848103902F034FB21462846BDE83840A1
:1007AC0001F0CCBA2C4200085C4200088C420008D4
:1007BC009C420008CB42000830BFFFF7FDBF00BFD2
:1007CC002DE9F0410B4E0546DFF82C80324606EB46
:1007DC000807CC1B0949204602F04CFFA019083C25
:1007EC004246002102F054FF07F108002C67BDE8D7
:1007FC00F08100BF0000000004000000C83E0008AB
:10080C002DE9F843324D804632488946174602F0AE
:10081C00F7FAAB6ADE0622D511242F4802F0F0FA63
:10082C00AB6A1D0703D512242C4802F0E9FA284DB7
:10083C00AB6A980715D52A4802F0E2FA6E6BAB6AE0
:10084C00190642D53146274802F0DAFAB9F1000F01
:10085C0003D0AB6A23F08003AB62132403E01024B3
:10086C00DEE76FF015061A4DAB6ADA0703D51424D0
:10087C001D4802F0C5FAAB6A9B0603D515241B482C
:10088C0002F0BEFA124B9A6AD50602D49A6A900705
:10089C000AD55B68190507D54146304600F042FA87
:1008AC0010B180F309880224094B9A6A920603D589
:1008BC005A6A22F400525A629A6A204642F0FF02A7
:1008CC009A6200233B70BDE8F8836FF01506C4E70D
:1008DC0000ED00E0DF420008F64200082A43000861
:1008EC003E430008574300086E4300088E4300083F
:1008FC0010B51D4C1D4802F083FAA36A990130D53E
:10090C001B4802F07DFA1E20A36ADA0103D51948B0
:10091C0002F076FA1F20144CA36A1B0303D5164869
:10092C0002F06EFA2120A36A590303D5134802F092
:10093C0067FA22200C4CA36A9A0303D5104802F0E4
:10094C005FFA2320A36ADB0303D50E4802F058FAA2
:10095C002420054A936A6FEA03436FEA13439362B8
:10096C0010BD1D20D0E700BF00ED00E0BE43000825
:10097C00D7430008EB430008064400082544000850
:10098C004B4400086644000870B5244C06462448C5
:10099C000D4602F035FAA36AD90435D5214802F088
:1009AC002FFA1720A36A1A0503D51F4802F028FA5C
:1009BC0018201A4CA36A9B050FD51C4802F020FA8C
:1009CC00A16BA36A180407D5194802F019FA1EB1D5
:1009DC00A36A23F40043A3621920104CA36A59059F
:1009EC0003D5144802F00CFA1A20A36ADA050DD5C7
:1009FC00114802F005FA1B20084A936A43F47F431E
:100A0C00936200232B7070BD1620CBE7A36A9B0466
:100A1C00F2D50A4802F0F4F91C20EDE700ED00E0F5
:100A2C0092440008A94400082A430008BB4400086B
:100A3C00D5440008EB440008074500088E43000825
:100A4C005F4B2DE9F0415F688AB004460025C7F37F
:100A5C00080685F31188BFF36F8F02F07F43B3F163
:100A6C007F4F06D102F00C03082B13D1554802F02E
:100A7C00C7F900252C464FF00008F31E8DF80780AF
:100A8C00092B00F28D80DFE803F00A81857D8B8BCA
:100A9C008B8B8B8910074CBF0C460125EBE7484E1E
:100AAC00494802F0ADF98DF80780F36A9A0704D52E
:100ABC00464802F0A5F900232AE0F36A002B01DA7C
:100ACC004348F6E7F36A5B00F5D5424802F098F923
:100ADC007369A26943F480737361BFF34F8FBFF3E3
:100AEC006F8F32F8023C726922F480727261BFF32C
:100AFC004F8FBFF36F8F03F47F42B2F55F4F28D156
:100B0C00DBB2022B25D12168334802F079F9236836
:100B1C009DF80720D2B902AE04F1200720680834F2
:100B2C0054F8041C3246BC4203C21646F6D1099A4C
:100B3C00002D41D0C2F3080121B96FEA52226FEAAD
:100B4C004222099202A91846FFF706FE0AB0BDE838
:100B5C00F0811B4B9A6AD2B232B10DF1070201211E
:100B6C002046FFF74DFE0FE09A6A12F47F4F05D036
:100B7C000DF107010120FFF707FF05E09B6AB3F5B4
:100B8C00803F98D3FFF7B4FE0346C1E70DF107028F
:100B9C000021E5E70DF107010020ECE70F4888E79D
:100BAC0017F4F87F0E4B0F49A6F1100208BF194637
:100BBC000D4802F025F97EE76FF30802C1E700BF8C
:100BCC0000ED00E04E4500087A450008924500080B
:100BDC00B4450008C3450008E3450008004600087A
:100BEC00204500083545000825460008044B5A6985
:100BFC0042F010025A615A6922F008025A61704799
:100C0C0000ED00E0EFF30880EFF3098101B57246C7
:100C1C00FFF716FF01BD00BF0B4880F30888FFF7F4
:100C2C0009FD102080F3118808484FF40461401826
:100C3C0080F30988EFF314800221084380F31488B1
:100C4C00BFF36F8F00F03AF880110024C00300242A
:100C5C001EF0040F0CBFEFF30880EFF309808169DD
:100C6C0011F8021C0229FFD001B5724602F04AF9B4
:100C7C0001BD00BF00B2013100284FEA0111C9B219
:100C8C0006DB00F1604000F5614080F8001370470E
:100C9C0000F00F00014B1954704700BF14ED00E039
:100CAC00044B054A23F07F039360BFF34F8FBFF3D0
:100CBC006F8F70470000000800ED00E008B5FFF7EB
:100CCC00EFFF0C4AD2F8883023F47003C2F8883056
:100CDC00EFF3148323F0040383F31488BFF36F8FB3
:100CEC00FFF7FCFCFFF710FD00F0ACF802F030F958
:100CFC0001F0E8F800ED00E042F8203C203A009BBF
:100D0C0007495360019B21F001019360029B9161A3
:100D1C00D3604FF08073D361002302654367704743
:100D2C00B5060008094A0346906870B113F1160F16
:100D3C00006E05D0A0F14002934205D3834203D24A
:100D4C00814228BF002070470020704764030024B4
:100D5C0015460C4A0E4608B50B4B9060026F1A6094
:100D6C0000F0E8F82C4686F309880020034B9847DE
:100D7C002046002100220023014C2047352F00087B
:100D8C00B506000864030024B8020024014B1022AD
:100D9C001A61704700ED00E0054B5A699B689A4256
:100DAC0004D0044A536843F080535360704700BF2B
:100DBC006403002400ED00E0084B9B6883420BD1D8
:100DCC00EFF3058343B1064B5A6842F080525A60E8
:100DDC005A6A22F400425A6202F0C7BB6403002430
:100DEC0000ED00E014498A684FF030001044EFF336
:100DFC00098C80E8F01F102080F31288BFF36F8FEE
:100E0C000E4F4FF000664A698A603E60106F0C4CC2
:100E1C002060506F0023536780F3118804B510468F
:100E2C0000F088F8BDE8044002F1300090E8F01FB3
:100E3C008CF30988704700006403002404ED00E083
:100E4C00B8020024002304481021C21801338F2B50
:100E5C0082F80013F9D1704700E100E008B5EFF318
:100E6C000583064A103B02EBC30152F83300496874
:100E7C008847BDE80840FFF78FBF00BFEC3900087A
:100E8C000148006870470000B8020024154A70B58C
:100E9C00536913F4803323D1C2F88430BFF34F8FDE
:100EAC00D2F8803043F6E074C3F3C900C3F34E3379
:100EBC005B0103EA0406014646EA81750139C2F872
:100ECC006052F9D2203B13F1200FF2D1BFF34F8FB8
:100EDC00536943F480335361BFF34F8FBFF36F8F6C
:100EEC0070BD00BF00ED00E00B4B5A6912F40032EC
:100EFC0011D1BFF34F8FBFF36F8FC3F85022BFF3E5
:100F0C004F8FBFF36F8F5A6942F400325A61BFF3AF
:100F1C004F8FBFF36F8F704700ED00E0024B012144
:100F2C00024A034800F076B80000082400000024B0
:100F3C002C400008036E4021044A403B10461360CD
:100F4C00034BC2E90113012100F06EB8BC0200246E
:100F5C0000000B15084AC2F898000B6823F01F0319
:100F6C00034343F01003C2F89C308B6843F0010339
:100F7C00C2F8A030704700BF00ED00E02DE9F0434F
:100F8C000E4685B01F4604464FF00009DFF854802A
:100F9C00B14523DA6068D8B13FB1411E08421BD17C
:100FAC001F2819D92368194216D12368019301F01F
:100FBC00D0FFA3680343D0B20393D8F89050C5F385
:100FCC000725013DA84207D801A9FFF7C3FF421C22
:100FDC0009F101090C34DBE76FF01502104605B07E
:100FEC00BDE8F08300ED00E0044B0522C3F894202B
:100FFC00BFF34F8FBFF36F8F704700BF00ED00E062
:10100C00BFF35F8F024B0022C3F89420704700BFE0
:10101C0000ED00E010B5034C01232278FFF7AEFF82
:10102C00207010BD940300240B4A08B500231278DD
:10103C00FFF7A4FF10F1160F07D0084A0021D2F8D1
:10104C009030C3F30723984200DB08BDC2F8980028
:10105C000130C2F8A010F2E79403002400ED00E088
:10106C005B4B2DE9F0435B4D85B0D3F890302C6889
:10107C00C3F307239C4200F2A78000200C26FFF745
:10108C00BFFF84421AD1544E68460027DFF84091C6
:10109C003470FFF703FB514C8046514DB84514D1C9
:1010AC00337800204A49D1F89020C2F307229342AA
:1010BC00C0F284800020FFF797FF45E0696806FBCB
:1010CC000011FFF747FF0130DBE700984FEA071CE0
:1010DC0000EB0711CB682340B3F5000F4DD00AD8B5
:1010EC00B3F5001F33D0B3F5800F3BD0B3F5801FA1
:1010FC0013D00137D2E7B3F1007F47D0B3F1805F53
:10110C004DD0B3F1807FF4D150F80C30886801F0E9
:10111C0020FF4A6840F0887009E050F80C3088686D
:10112C0001F017FF40F088504A6840F430200390DB
:10113C003078CDE90123D9F89030C3F30723013B74
:10114C00984234D96FF0150005B0BDE8F08350F823
:10115C000C30886801F0FDFE40F088504A6840F47D
:10116C000020E4E750F80C30886801F0F2FE40F003
:10117C00C0604A6840F40030D9E750F80C308868F9
:10118C0001F0E7FE4A6840F08270D0E750F80C306E
:10119C00886801F0DEFE4A6840F48020C7E750F80A
:1011AC000C30886801F0D5FE4A682843BFE701A9D6
:1011BC00FFF7D0FE3378013333709AE7C1F89830DB
:1011CC000133C1F8A0006EE74FF0FF30BCE700BF61
:1011DC0000ED00E0D83F0008940300240000F0FF6D
:1011EC000000021108B5024B1B689847002008BD8F
:1011FC00C8020024034B044A1860937843F002039E
:10120C0093707047C8020024040000240649074864
:10121C0021F00701C1F1105208B502F5002201F0CE
:10122C009BFD002008BD00BFC7110024CC02002488
:10123C0007B5084A92E80300CDE900010648826828
:10124C00126822B16946904703B05DF804FB6FF059
:10125C005700F9E7C83E00082C380008044B03EB94
:10126C0040000023013320F8022B8B42FADB70473D
:10127C00400000242DE9F041054600260F4F4FF0A9
:10128C000108F4B26B78A34201D8BDE8F0812B7849
:10129C001C44204601F072FE68B1204601F08AFE23
:1012AC0057F834303BB107EBC40204F01F0451680B
:1012BC0008FA04F098470136E3E700BFD80200248F
:1012CC00334B10B518680B88C3F30B03132B37D8AB
:1012DC0013B96FF0850032E0013B122BF9D801A451
:1012EC0054F823F08B130008DF1200087913000860
:1012FC003D1300087F130008DF120008DF120008FE
:10130C008B1300088B1300088B1300088313000841
:10131C008713000883130008DF120008DF1200088F
:10132C00DF120008DF1200087113000871130008A7
:10133C00184810600968B1F5805F22D2002010BDFA
:10134C00D42B0FD003F62873C3F30B031C2BC0D87C
:10135C00012404FA03F3104C234205D140F211147A
:10136C002342B6D04008E4E78008E2E74FF4FA40A5
:10137C00DFE70A48DDE70A48DBE70A48D9E70A480D
:10138C00D7E7C1F313310131B0FBF1F31360D5E7AB
:10139C002C00002400127A0000101111006CDC02E9
:1013AC00000E270700B4C40400389C1C984B13B5DE
:1013BC00D3F8E02042F00072C3F8E020D3F8E0202C
:1013CC0002F000720192019A1A6842F480221A60AB
:1013DC001A6842F480321A601A689203FCD55A6F6C
:1013EC0042F001025A678A4B5A6F9407FCD51A686F
:1013FC0042F480521A601A689004FCD500230093C2
:10140C00844B9A6942F440429A619A6902F44042D0
:10141C000092814AD16A41F00101D162D26A02F094
:10142C0001020092009A9A699104FCD5784B1A69D2
:10143C001A6902F03802182A16D11A68520706D413
:10144C001A6842F001021A601A685407FCD5704BF6
:10145C001A6922F007021A611A6912F0380FFBD1CF
:10146C009A6922F00F029A61694B1A6822F0807215
:10147C001A601A6822F080621A601A6822F0805290
:10148C001A609A6A22F0030242F002029A629A6A85
:10149C0022F47C7242F020029A62DA6A22F00C0288
:1014AC0042F00402DA62DA6A22F00202DA621A6BA1
:1014BC006FF3080242F0EF021A63DA6A22F00102BB
:1014CC00DA621A6B22F47E4242F400721A63DA6A10
:1014DC0042F48032DA621A6B22F4FE0242F4803259
:1014EC001A63DA6A42F40032DA621A6B22F0FE42B4
:1014FC0042F080721A63DA6A42F48022DA621A6865
:10150C0042F080721A601A689001FCD59A6A404CBD
:10151C0022F47C3242F480429A62DA6A22F0C002EF
:10152C00DA62DA6A42F02002DA629A6B6FF308022E
:10153C0042F077029A63DA6A22F01002DA629A6B4E
:10154C0022F47E4242F400729A63DA6A42F4002278
:10155C00DA629A6B22F4FE0242F400329A63DA6A7F
:10156C0042F48012DA629A6B22F0FE4242F08072F0
:10157C009A63DA6A42F40012DA621A6842F0806204
:10158C001A6023681901FCD5244800F05DFBA3699F
:10159C001F4A23F47063A361A36923F00F0343F084
:1015AC000803A361E36923F0700343F04003E36194
:1015BC00E36923F4E06343F48063E361A36923F0FC
:1015CC00700343F04003A361236A23F0700343F0DC
:1015DC0040032362236923F0070343F003032361D1
:1015EC00136903F03803182BFAD10A4B9A6942F4A9
:1015FC0040429A619A699204FCD5054A002013690D
:10160C0023F400431361064B064A1A6002B010BD66
:10161C00004402580048025800040058001C4E0EAA
:10162C002C00002400389C1C132808D8054BC34000
:10163C0013F0010F0CBF6FF08500002070476FF0A6
:10164C00850070473A3F0C0008B5074801F06CFF65
:10165C0038B10648FFF7CEFD0448FEF79DFF002089
:10166C0008BD6FF01200FBE7D03900087D160008AA
:10167C000A2838B50446074D04D1AB680D2128461D
:10168C005B689847AB68E1B202485B6898472046B4
:10169C0038BD00BFD0390008012912D0022907D06B
:1016AC0089B90068094BC01A18BF012000037047A4
:1016BC000068064B98420CBF4FF400504FF440505A
:1016CC007047002070474FF400507047000C0058D2
:1016DC0038B51D46094B33F812200023FEF7C8FD20
:1016EC002A46090200236C0841EA10610002201806
:1016FC0041F10001FEF7BCFD38BD00BFE840000819
:10170C00F7B5034605680C4619B96FF0150003B020
:10171C00F0BD406819698368DB6833B301AA984748
:10172C000028F4DB214B9D4210D1019F0025204E57
:10173C002346AAB238460021FFF7CAFFA0F5407035
:10174C00B04215D90135102DF2D1DEE72B6823F408
:10175C0000432B60019B03EB5403B3FBF4F30F2BFF
:10176C00D3D99BB2EB600020D1E76FF05700CEE7E6
:10177C000E4E38464FF48077F36A23F00F032B4359
:10178C00F3620C4B33F8152000231946FEF770FD5D
:10179C0000230546600819462246E5FB0701FEF7C3
:1017AC0067FDC0F31300F060DDE700BF000C0058CC
:1017BC00FFFC0F00E84000082DE9F84306460A79C3
:1017CC0040680D463369012A04681F6817D0931EC0
:1017DC00D3F1000949EB03094FEA89296979FFF72D
:1017EC005BFF95F806800346B8F1020F0AD0B8F1FA
:1017FC00040F01D0002A64D04FF4805005E04FF460
:10180C00C069EBE7002A59D00020A2F1030CBCF10F
:10181C00010F04D86FF085031846BDE8F88312B1A8
:10182C00B8F1040FF6D0B3F5805F4CD0B3F5405F40
:10183C004BD0002B0CBF012303239942EAD149461C
:10184C0001F0F9FC8045E5D1EB791BB3012B3ED1BE
:10185C00204B9C421ED0A3F54C439C421AD003F55E
:10186C0080639C4216D003F580639C4212D003F532
:10187C0080639C420ED003F544439C420AD0A3F5EE
:10188C001C439C4206D003F580639C4202D0124B51
:10189C009C42BFD123682946304623F001032360C4
:1018AC0001F080FD03460028B4D1226842F0010209
:1018BC00226095E8030087E80300ADE74FF0805005
:1018CC00B1E71046AFE70023B7E70223B5E7032BD8
:1018DC00BED09FE700100140000C0058F7B54468DB
:1018EC0006466068216983681B68002B00F0A080A5
:1018FC009847002831DB01AA0021606A01F035FC11
:10190C0000282ADB019B00221979186801F03FFCA2
:10191C00002822DB756833692C681F68236823F064
:10192C0001032360A86801F0FFFD002800F083800C
:10193C00D5E902018368DB6803B1984754E8003F9E
:10194C0043F00C0344E80032002AF7D13946304604
:10195C0001F028FD18B16FF0150003B0F0BD2B7E1F
:10196C001BB1A36843F00803A3606B7E1BB16368D3
:10197C0043F400436360AB7E1BB1636843F4803374
:10198C006360EB7E1BB1636843F4003363602B7FB1
:10199C00002B3BD0294B9C421ED0A3F54C439C42C0
:1019AC001AD003F580639C4216D003F580639C42E9
:1019BC0012D003F580639C420ED003F544439C4245
:1019CC000AD0A3F51C439C4206D003F580639C42CD
:1019DC0002D01B4B9C42BED173681A68936843F4C7
:1019EC008043936023686A7F23F0787343EA425301
:1019FC0023602368AA7F23F4F81343EA024323608D
:101A0C00EB7F1BB1A36843F40043A36095F820302F
:101A1C001BB1236843F000532360236843F0010398
:101A2C002360E3699A02FCD5E3695B02FCD594E779
:101A3C006FF0570091E76FF012008EE70010014035
:101A4C00000C00584FF0E0230D4A99691268186990
:101A5C009B69002908BF1146002B08BF134610F4E0
:101A6C00803F084801D1994205D2016811440160B8
:101A7C004FF0E021096900681044C01A704700BF9C
:101A8C006003002458030024094B1022002083F823
:101A9C0023204BF68032074B1A604BF67F32064BF5
:101AAC0018604FF0E0235A61072298611A61704761
:101ABC0000ED00E06003002458030024684620F089
:101ACC0007018D46F1B501F00FFD0446FFF7BAFF93
:101ADC001248134A002703680760D2E900515B19CA
:101AEC00104D41F10001C2E90031D5E900614BF61E
:101AFC0080329B1BB3FBF2F002FB00F39B1941F10C
:101B0C000001C5E90031084B21461F6000F0D2FDF1
:101B1C00FFF742F9BDE8F1408546704758030024B1
:101B2C0088000024800000245C0300242DE9F0418F
:101B3C008046344E69B1B0F1FF3F0AD14FF0E0223C
:101B4C00136923F0010313614FF07F433360BDE849
:101B5C00F081FFF777FF4FF0E0232B499C692B4A6C
:101B6C003568D1E90037C3184FF0000047F1000782
:101B7C00B8F1FF3F1060C1E9003725D02448D0E907
:101B8C000020B3EB020C67EB0007002F37DB214B77
:101B9C004BF6803E4FEAE8701B6813EB080340F1EC
:101BAC000000A3FB0E320EFB0022B3EB0C0340F63D
:101BBC00B93062EB0702834272F100001FDBB3F114
:101BCC00807F72F1000201DB6FF07F4333604FF0D6
:101BDC00E022013B966953610023B44293614FF0BC
:101BEC0000720D4B5A6036BF6319A31B9B1BD1E9C6
:101BFC0000021B1842F10002C1E90032A7E740F6CF
:101C0C00B833E3E760030024880000245803002461
:101C1C00800000245C03002400ED00E0074B10B5AD
:101C2C001C68074B1B68E41AFFF70CFF4BF680335C
:101C3C002044B0FBF3F0034B186010BD8800002467
:101C4C00800000245C030024002852D02B4A9369A6
:101C5C0003F44043B3F5404F1FD1294B294A0344A9
:101C6C00934242D9284B294A034493423FD9284BEB
:101C7C0098423ED8002327490A6822F00F021A43E3
:101C8C000A600A6802F00F02934234D0086800F030
:101C9C000F00C01A18BF01207047936903F440432A
:101CAC00B3F5004F0ED11C4A1C4B02449A421AD970
:101CBC001B4A02449A4218D91A4A02449A4216D92B
:101CCC000133D5E7184A194B02449A4209D9184AEC
:101CDC0002449A4207D9174A02449A4205D9164A35
:101CEC00EBE70423C7E70323C5E70223C3E701237C
:101CFC00C1E7012070470020704700BF0048025820
:101D0C00FFC4A7F7FFE0F5057FE2D3FB7F1D2C0492
:101D1C00801D2C0400200052BF4C2AF6BF3B470309
:101D2C007F8871F93FC4B8FCFF6A45F53FA5AE0248
:101D3C003F10F4F77FB5A2FABF5A51FD38B5EFF357
:101D4C001185102383F31288BFF36F8F064B9C68A9
:101D5C0001F0FDFB85F31188BFF36F8F2046BDE8C2
:101D6C003840FFF729B800BF6403002438B50A4B8C
:101D7C0053F82040013053F82050A54200D838BD0C
:101D8C00606830B1037EDB0701D401F0B5FB083489
:101D9C00F3E723689847FAE7D0400008284B012264
:101DAC00032070B5274C86B0274D1A70FFF7DEFF65
:101DBC000420FFF7DBFF26463034AE420FD3214C14
:101DCC0000F0CEFAAC4226D300F0DEFAFEF7C8FBE8
:101DDC001E4A938923F00103938106B070BD54F819
:101DEC000C3C059354F8103C049354F8143C0393A6
:101DFC0054F8183C029354F81C3C019354F8203CC2
:101E0C00009354E90A2354E90C0100F0BDF854F88E
:101E1C00303C5E65CFE7D4E90A23B3F1FF3F08BF3E
:101E2C00B2F1FF3F05D052EA0301206803D100F064
:101E3C0009F93034C6E70649183000F04BFBF8E7D7
:101E4C0095030024643E0008643E00081001002441
:101E5C002336000870B5002386B00122144E01937E
:101E6C000446144D06EBC0161349CDE904230F228A
:101E7C00CDE9023214234FF4A07203FB00554FF44A
:101E8C00C0700E4B00FB04113046009500F07CF83E
:101E9C00337C0B4A23F00403EE602C7433744FF440
:101EAC00046304FB033313446B6006B070BD00BFC6
:101EBC009000002464030024000C00246135000809
:101ECC00C00300247FB50020FFF750FF264B83F39F
:101EDC000888264D0024F02385F82230EC772C76E8
:101EEC006C76AC7685F820406B6A43F4E0236B6229
:101EFC00FEF77CFEFEF74AFF4FF0FF33AB62EB625E
:101F0C00FFF7AEF81A4DFFF709F81A4800F08EF8F3
:101F1C00FEF79CFB0120FFF729FF0220FFF726FFAD
:101F2C0000F016FA144B4FF4806214495D61284698
:101F3C00134B009405930123CDE90144CDE90343F0
:101F4C00104B00F021F82B7C0646284623F00403A6
:101F5C002B7401F03BFB2046FFF77CFF094A31460E
:101F6C002846FEF7F5FE00BF000C002400ED00E053
:101F7C00100100249001002464030024800D00242F
:101F8C0095460008A91D000807322DE9F04322F000
:101F9C00070285B01F4600F158037F3200250E461C
:101FAC000F9922F03F0204468173002185603F2A7D
:101FBC00C57306F14009A2F14008C0E91633109B25
:101FCC0083814FF00403C0E9065503744FF0000001
:101FDC00C4E90A0105D885F31188BFF36F8F184641
:101FEC0002DFB51820462946FEF7EAFB07300E9BA8
:101FFC00314620F00700C4E91898A0662D1A029308
:10200C0020460D9B2A4601930C9B00933B46FEF702
:10201C0073FE00236365044B9B6803B1DB6E28469B
:10202C00E36605B0BDE8F083640300240123037468
:10203C0083810023C0E91833C366014B9860704755
:10204C006403002438B50446EFF31185102383F3A1
:10205C001288BFF36F8F037C5B070FD5183000F02D
:10206C00D1FA237C204623F00403237401F0BDFA3B
:10207C0029460548BDE8384001F0E2BA85F31188DD
:10208C00BFF36F8F38BD00BF96030024094A6FF071
:10209C000A0193689967084958674B6843F0805365
:1020AC004B60002383F31188BFF36F8F9368986F95
:1020BC00704700BF6403002400ED00E070B590F998
:1020CC001020037C002A2FDBD9062DD11A4C63F08B
:1020DC007F0322460374E16952F8183F934207D1FB
:1020EC00C0E900210860E0610FE09942F8D01B685C
:1020FC00002BF5D093F90E6090F90E50AE42F4DD42
:10210C005968C0E9003108605860A569954200D053
:10211C0005B9E568A3681A7CD20606D1DA897F2A4C
:10212C0003D9AA690AB9636170BDAB4202D02846D3
:10213C0000F070F96561F7E764030024034648B9C1
:10214C00EFF3058232B9064A51699268914201D087
:10215C00FFF79CBF83F31188BFF36F8F704700BFED
:10216C006403002438B5184CA168E0690B688142FF
:10217C0014BF1A46002249680B605960A368E169D4
:10218C002AB9124AC3E900210B60E3610AE092F913
:10219C000E5093F90E00854212DD5168C3E90021FF
:1021AC000B605360A569094B9D4200D005B9E568E9
:1021BC00A3689D4202D0284600F02CF9656138BD19
:1021CC008A42DED01268DBE7640300247C0300241F
:1021DC00002A2DE9F8430CBF4FF010084FF0080807
:1021EC00027C04460D4618EA020F62D148EA02034B
:1021FC00D2090CD10374B8F1080F7BD1A36813B1C9
:10220C00204601F0D9F904F1180610270FE003F06D
:10221C007F03037401F0C8F9EDE785F31188BFF370
:10222C006F8FEFF3118587F31288BFF36F8F3046F2
:10223C0000F0E8F90B30F0D004F15807A66DB74266
:10224C0011D04FF0000976B1304601F0B5F906F126
:10225C001800C6F8789000F0D5F93046FFF72EFF3D
:10226C00A66DB742EFD1274B9B689C4242D1EFF34E
:10227C000587003F18BF0127DFF888904B4653F8BD
:10228C00186F9E4200D00EB9D9F80C60D9F80830FE
:10229C00B34202D0304600F0BDF8B8F1100FC9F8C7
:1022AC00146006D0204600F03CFE17B11648FFF72C
:1022BC00BDFE144B9B68A3421ED1EFF30583DBB923
:1022CC00A289D20711D585F31188BFF36F8F83F3E1
:1022DC001188BFF36F8F0423184602DFEFF31185CB
:1022EC00102383F31288BFF36F8F2846BDE8F843A1
:1022FC00FFF7CCBE0027BFE785F31188BFF36F8FC4
:10230C00BDE8F883640300249001002470B50F4DE0
:10231C0006462B4653F8184F9C4200D004B9EC6883
:10232C00AB681A7CD20604D1DA897F2A01D9A2695A
:10233C002AB1A34202D0204600F06CF82346304666
:10234C006B61BDE87040FFF7F9BE00BF6403002469
:10235C00024B03F11802C3E9062270476403002400
:10236C00EFF31181102383F31288BFF36F8F054BAA
:10237C009A68D37B013BD37381F31188BFF36F8FC2
:10238C00704700BF64030024EFF31180102383F324
:10239C001288BFF36F8F034B9A68D37B0133D373CF
:1023AC00FFF7B4BF64030024014B9868704700BF6B
:1023BC0064030024027C034612F01F0210D10A4968
:1023CC0088420DD00949086868B1D9897F2909D894
:1023DC0093F90E20064B1B689A42B8BF0020704739
:1023EC0000207047104670479000002430000024F5
:1023FC0088030024044B0122C01A044BC01058431C
:10240C00034B1A54704700BF10020024ABAAAAAAAF
:10241C0096030024F8B50C4B0C4D1E7CFFF7CAFF3D
:10242C00182304460A4F03FB0655284600F0EAF829
:10243C0034B1BB5D28460749E21AD31700F04AF8BD
:10244C000023BB55F8BD00BF640300241002002418
:10245C00960300240124000870B5EFF311861023B5
:10246C0083F31288BFF36F8F0F4D104BAC68186855
:10247C00A04202D1FFF7CEFF11E000221A602B7CA4
:10248C000B4AD35C5BB12046FFF794FF38B1237C39
:10249C00DB0604D1FFF766FE6869A042EAD086F33A
:1024AC001188BFF36F8F70BD640300248403002474
:1024BC0096030024024B1868984208BF002070470E
:1024CC0038000024024B186808B1FFF7A7BB70470F
:1024DC0034000024B3F1FF3F08BFB2F1FF3F2DE9F8
:1024EC00F84F0446994615461F4600F081808160DE
:1024FC00EFF31188102383F31288BFF36F8FB9F1B8
:10250C00000FDFF8F4A025DBFFF7DCFF3B4B0646A2
:10251C001B68003B18BF0123451949EBE0795B1997
:10252C00DAE9005749F100024FF001095D1942EB5D
:10253C000707C4E90432FFF7BDFFDFF8C4E0034628
:10254C00DEF804A0EBB9C4E900EACAF80040CEF802
:10255C00044028E0DAE900126FF001035B1A4FF037
:10256C00FF3161EB02025B1B62EB0902012B4FF0A6
:10257C00000972F10001BCBF01230022C0E9043242
:10258C00D9E7D3E9041CD4E904208A4270EB0C0B84
:10259C0025DA891A5A686CEB0000C3E90410C4E907
:1025AC00003214605C60FFF785FF84420FD1134B3F
:1025BC001B6801330BD1B9F1000F02D1FFF782FF79
:1025CC000646304601F03FF80021FFF7AFFA88F3DA
:1025DC001188BFF36F8F28463946BDE8F88F521A21
:1025EC0060EB0C005345C4E90420ACD01B68A9E790
:1025FC0000252F46EFE700BF2802002434000024FA
:10260C0038000024F8B50446EFF31186102383F349
:10261C001288BFF36F8F026872B3FFF74BFF184B32
:10262C005B689C4208D0D2E90431D4E90475DB190B
:10263C0041EB0501C2E90431D4E900320025A04286
:10264C0013605A60C4E900550ED000200D4A13687F
:10265C0023F001018C4204BF43F00103136086F3A5
:10266C001188BFF36F8FF8BDFFF72CFF00F0EBFF65
:10267C002946FFF75BFAE8E76FF01500E6E700BFC5
:10268C00380000248C030024EFF31182102383F311
:10269C001288BFF36F8F064B40F001001B681B1AAA
:1026AC005842584182F31188BFF36F8F704700BFB7
:1026BC008C0300242DE9F0470023DFF8BC902F4C4D
:1026CC000E462F4FDFF8BC80C9F800002360FFF7DF
:1026DC00F1FED9F80050D7E900CE4FEAE57A50B1B7
:1026EC00D0E904319D427AEB01021EDA5B1B61EBEF
:1026FC000A01C0E9043115EB0C054FF0FF334EEB2A
:10270C000A022360C7E9005200252846C9F8005088
:10271C0000F099FF2946FFF709FA86F31188BFF3F9
:10272C006F8FBDE8F047FFF797BE13EB0C0CA5EBD2
:10273C0003034FF00005826841EB0E01C9F800302D
:10274C00C8F80000C7E900C1D0E900310B6059603E
:10275C00C0E9005586F31188BFF36F8F9047EFF3F4
:10276C001186102383F31288BFF36F8FC8F80050C3
:10277C00FFF7A0FEADE700BF900300243400002457
:10278C00280200248C0300240FB407B5064B04AABE
:10279C00186852F8041B019200F008F803B05DF8B9
:1027AC0004EB04B0704700BF384000082DE9F04F2F
:1027BC008BB04368009383789C078046924640F127
:1027CC00F98000250878002800F0F68025280AD02A
:1027DC004B1C019301354146009B98470028C0F2E1
:1027EC00E3800199EEE74E788B1C252E0193F1D0F6
:1027FC000027B9463C460A221F2C22D8A6F12003FA
:10280C00102B20D8DFE803F0141F1F1A1F1F1F0BFB
:10281C001F1F1F121F171F1F090044F00104019BEB
:10282C0013F8016B0193002EE6D13AE044F0020458
:10283C0044F00404F3E744F00804F0E744F0100417
:10284C00EDE77F2C24D8A6F13003092B08D86006BD
:10285C004EBF02FB073702FB093944F02004DEE7C8
:10286C002A2E0DD161065AF8043B53D4002BA7BF76
:10287C0044F020049946C3F1000944F02804CEE743
:10288C002E2E05D1630600F1978044F04004C6E774
:10289C006C2E2ED028D8682E32D06A2E37D04C2EE3
:1028AC0035D0002F46F02003B8BF24F04004A3F12C
:1028BC006502BCBFA4B20027022A01D9612B2BD11F
:1028CC000AF1070A2AF0070A9C4E0AF1080A0727A0
:1028DC00210760D506EB070B34465C455DD1AE1B7A
:1028EC00A219A9EB070959E1742E98D07A2E96D02B
:1028FC00D7E7260648BF44F4007444F080048EE702
:10290C00E00548BF44F4007444F4807487E744F451
:10291C00207484E71F4682E7A6F16302122A00F2B4
:10292C00D880DFE812F013004D00D600D600D60098
:10293C00D6004D00D600D600D600D600D600E80052
:10294C00D100D600D6001A00D600A0005AF8043BDD
:10295C008DF81030012704AEBAE75AF8046B784BA7
:10296C00002E08BF1E4614F0400F14BF39464FF01E
:10297C00FF31304600F094FE0746A9E7009B414624
:10298C002020984700280FDB013CA742F6D34D448A
:10299C002D1BA1469EE74C46F7E714F8010B009B54
:1029AC0041469847002898DA98F8023043F004031F
:1029BC0088F802304FF0FF3528460BB0BDE8F08F99
:1029CC00220630D5A3052AD50AF1070A2AF00703F7
:1029DC009A4659685AF8080B24F0100B00291FFA74
:1029EC008BFB2FDA404261EB41014BF4806B04AC62
:1029FC000A23224600F060FE1BF0400FA0EB0402FD
:102A0C0000F08E802BF001049742A4B240F38F802B
:102A1C00002E40F08E802BF01104A4B21DE05AF869
:102A2C00040BC117D8E7E0055AF8041B01D408467B
:102A3C00F7E7A2054BBF48B208B241F3C01141F30E
:102A4C00C031C9E750EA0103D1D16306CFD5002FBD
:102A5C00CDD124F01104A4B23A463B4640F20641D3
:102A6C000C4262D124E024F01004A4B20A2314F026
:102A7C00800243D014F400711FBF0AF1070A2AF038
:102A8C0007029246516814BF5AF8080B5AF8040B07
:102A9C0050EA01023ED124F0160B62061FFA8BFBA2
:102AAC003CD5002F3AD124F01704A4B23A463B4649
:102ABC0021075AD4E10705D5994572DDA9EB03032B
:102ACC009F184B469B464AE044F01004102378268E
:102ADC00CDE7782B04D1C6F1780343F01003C6E799
:102AEC00009B4146252098470028FFF65DAF023534
:102AFC004146304670E608230026B8E714F480718E
:102B0C005AF8040BC4D014F400711ABFC0B21146A9
:102B1C0080B2BDE724F006041FFA84FB04AC68E71E
:102B2C0013465C46E10699D52EB90133C0E713462E
:102B3C00F8E73B46F6E70233BAE700BFA1460008C8
:102B4C009A460008CDE902324146009B2020984766
:102B5C000028FFF629AFDDE902320BF1010BD94554
:102B6C00F0DCEB1A03EB0B055B46E10627D5CDE950
:102B7C0002324146009B302098470028FFF614AFE4
:102B8C00DDE902327EB901352F44791B8A4229DBFB
:102B9C00144604AE9CBB2A44A9EB03091546914488
:102BAC0042E017468EE7CDE9023202354146304607
:102BBC00009B98470028DDE90232E5DAF4E640F2A2
:102BCC0006410C42E0D014F0020F14BF2B20202041
:102BDC0014F4806FCDE9023205F10105414618BFAE
:102BEC002D20E5E7CDE902324146009B3020984785
:102BFC000028DDE9023205F10105C6DAD4E6013C14
:102C0C00CDE90232305D009B414698470028DDE952
:102C1C000232BFDAC8E6009B4146202098470028C4
:102C2C0005F10105FFF6C0AEA9EB0503002BF2DCA4
:102C3C00D7E500BF7047836800EBC101B3F5004FC7
:102C4C002CBF51F8220031F81200704700EBC10183
:102C5C008068B0F5004F2CBF41F8223021F81230BB
:102C6C007047012208B5FFF7E6FFD04008BD836826
:102C7C0000EBC101B3F5004F08D34B681AB143F018
:102C8C0001034B60704723F00103FAE74B881AB13C
:102C9C0043F001034B80704723F00103FAE7530024
:102CAC000122FFF7D3BF08B58368B3F5004F06D3F5
:102CBC00FFF7D7FF01288CBF0020012008BD0020A2
:102CCC00FCE78368B3F5004F28BF0139B1FA81F0F6
:102CDC00C0F11F0070472DE9F04104460D46FFF787
:102CEC00E2FFB8BB29462046FFF7BBFF0146204652
:102CFC00FFF7E7FF04EB80010E6996B90122E36848
:102D0C008240204613430222E3602B460D61294684
:102D1C00FFF79CFF032229462046BDE8F041FFF750
:102D2C0095BF022231462046FFF785FF2946034610
:102D3C0007462046FFF78AFF0322334629462046E2
:102D4C00FFF784FF39462B462046FFF77FFF022210
:102D5C003146E1E7BDE8F081B2F5802F34BF0423A2
:102D6C000823D21A2DE9F0418C18CD1D002625F030
:102D7C00070524F00704641B05602846EE60E40890
:102D8C002146AC60FFF79DFF3146820005F1100033
:102D9C0002F11B07043200F07BFC3146FF08284689
:102DAC003A46A4EB0708FFF77AFF33463246314622
:102DBC002846FFF74BFF284631460122FFF757FF05
:102DCC0042463946FFF76BFF3B46324639462846AA
:102DDC00FFF73CFF21462846FFF761FF434632468A
:102DEC0021462846FFF732FF214628460122FFF7ED
:102DFC003EFF3946BDE8F041FFF76DBF002070473C
:102E0C000FB407B504A951F8040B0191FDF7CAFBE7
:102E1C0003B05DF804EB04B0704770476FF05700D7
:102E2C0070476FF0570070476FF0570070476FF0A6
:102E3C00570070476FF0570070476FF0570070479E
:102E4C00F0B5012402F4C04640688C40B6F5804FC2
:102E5C00406804FA01F53ED10729C2F343272ED866
:102E6C0005FA01F3066A8B40C3EB031C7B4326EA8D
:102E7C000C06334303624668C2F3C0338B4026EA28
:102E8C0004010B434360846805EB4501C2F3014325
:102E9C0024EA01046B4323438360C2F38143C46877
:102EAC00C2F341326B4324EA01046A432343C360F7
:102EBC00036823EA01031A4302600020F0BD230AD1
:102ECC00466A5B435B43C3EB031C5F4326EA0C0679
:102EDC003E434662CFE7B6F5005FD4D14768C2F3F4
:102EEC00C03606FA01F127EA040631434160002B93
:102EFC00C9D0D30258BF24048461C4E700F0C8BB16
:102F0C0000F0B8BB01460068FDF726BC08B5FDF71C
:102F1C0053FCBDE80840FDF73FBF00210120FDF741
:102F2C001BBC6FF08500704761B662B680F31188E8
:102F3C00BFF36F8F704772B6002383F31188BFF312
:102F4C006F8FBFF34F8F30BF62B6BFF36F8F704779
:102F5C007047202809D9B0F1004F08D80138B0FAD1
:102F6C0080F0C0F11F0040007047082070473E20E1
:102F7C00704708B5FEF736F9002008BD5F2817D852
:102F8C0000F01F0201231F2803FA02F34FF0B04296
:102F9C0006D8D2F8882093430CBF0120002070473C
:102FAC003F2802D8D2F89820F5E7D2F8A820F2E70B
:102FBC000020704700F01F0201235F2803FA02F380
:102FCC000FD81F284FF0B04203D8C2F88830002029
:102FDC0070473F2802D8C2F89830F8E7C2F8A830FA
:102FEC00F5E76FF01500704708B5062201210020A7
:102FFC00FEF734F9002206201146FDF73BFE0121B5
:10300C0007220846FEF72AF9002207201146FDF791
:10301C0031FE082201210220FEF720F900220820AF
:10302C001146FDF727FE092201210320FEF716F9B0
:10303C00002209201146FDF71DFE0A220121042061
:10304C00FEF70CF900220A201146FDF713FE0521AC
:10305C0017220846FEF702F9002217201146FDF749
:10306C0009FE282206210A20FEF7F8F80022282063
:10307C001146FDF7FFFD002008BD0B8882B0C3F39D
:10308C000B0303F62C72C2F30B02202A14D803F1A3
:10309C00B043486803F511331A68024300201A60E4
:1030AC000B88C3F30B0303F1B04303F511331B6817
:1030BC000193019B02B070476FF08500FAE70B8813
:1030CC00C3F30B0303F62C72C2F30B02202A0AD8AB
:1030DC0003F1B0434968002003F511331A6822EA62
:1030EC0001021A6070476FF08500704770B5088850
:1030FC004A68C0F30B0094B2C2F30445FEF794FA8D
:10310C00A0B9FF2A11D0C2F34156012304F1B041FA
:10311C00120E013601F51131AA40B3400C68013B87
:10312C00AB4024EA030313430B6070BD6FF08500C2
:10313C00FBE70888C0F30B0008B500F62C73C3F34B
:10314C000B03202B0AD800F1B0404B6800F511306E
:10315C00026893430CBF0220012008BDFEF764FAFD
:10316C0000280CBF02200120F7E730B5036813607C
:10317C000579046804EBC504A34202D36FF0010087
:10318C0030BD5C7908338C42F1D10020F8E7F8B5FA
:10319C00044600EB8105AC4201D100200FE054F84D
:1031AC00046B06F01F00C6F34317FDF731FA38B174
:1031BC00012332463946FFF743FE0028EBDAF8BD0F
:1031CC006FF01200FBE74368C1F34B1001F01F01D5
:1031DC001B68C05801238B4003400020003B18BFE4
:1031EC0001231370704710B54368C1F34B1001F005
:1031FC001F011A68012384588B40234383500020FD
:10320C0010BD10B54368C1F34B14012201F01F012E
:10321C0018688A40235823EA02032350002010BD6B
:10322C0038B504460D46FFF7DEFF29462046FFF76A
:10323C00E8FF002038BDB0F5805F07D0B0F1805FAB
:10324C0009D100290CBF02200120704700290CBFB6
:10325C0004200320704700290CBF03200220704774
:10326C0043681B68D869DA69C0F3C00002F0010238
:10327C0040EA4200DA699207DA6948BF40F004007C
:10328C005107DA6948BF40F02000D20504D54FF44D
:10329C00807240F008001A62C10701D508221A6238
:1032AC00820701D501221A62410701D502221A6256
:1032BC00820601D504221A62704710B543681020AB
:1032CC001B68DA691206FCD5EFF3118280F31288C1
:1032DC00BFF36F8FDC69240604D482F31188BFF32B
:1032EC006F8FEEE7996282F31188BFF36F8F10BD79
:1032FC0043681B68DA69100701D508221A62DA697B
:10330C00920603D55B6A00200B7070474FF0FF30BC
:10331C00704710B5026904460B46126812680A60C1
:10332C0042681268126802F4C062B2F5806F33D042
:10333C00A2F5C060424242411A716268126852683A
:10334C0002F44052B2F5805F28D0B2F5405F27D02E
:10335C00002A0CBF012203225A716268126810689D
:10336C00116800F0102001F4C061FFF764FF987140
:10337C00626800201268926802F44072A2F54071F3
:10338C004A424A41DA7161680968896811F4804FD0
:10339C0018BF0322DA7110BD0222CDE70022DBE751
:1033AC000222D9E72DE9F0410A79044603690D465A
:1033BC00012AD0F804801E6814D0A2F1020CDCF1B2
:1033CC00000747EB0C07BF0269794046FEF764F92A
:1033DC00AB79022B09D0042B31D0131E18BF01235B
:1033EC001B0306E04FF4C067EEE7B2FA82F35B0909
:1033FC001B07EA79D8F80010012A0CBF4FF4407C67
:10340C004FF0000CAE421DD10A6822F0805222F41B
:10341C00B0523A431A430A604B6823F440530343B7
:10342C004B6063681A68936823F4407343EA0C0397
:10343C00936031686068BDE8F041FEF761B94FF404
:10344C008053D6E7D1F800E00EF4C06E774506D075
:10345C00D1F800E02EF4C06E4EEA07070F606168E9
:10346C000F68796801F44051884204D0796821F4DE
:10347C0040510143796061680868016801F01021CE
:10348C008B4204D0016821F010210B430360636868
:10349C0019688B6803F440739C4505D08B6823F442
:1034AC00407343EA0C038B606368D71E1B68784239
:1034BC0099687841C1F38031884207D0032A9A6811
:1034CC000CBF42F4804222F480429A60296833682F
:1034DC00994207D06068FEF713F908B92B6833607E
:1034EC00BDE8F0810020FBE7EFF31180102383F39C
:1034FC001288BFF36F8F704710B5436904463BB910
:10350C000020E2684042537843F00103537010BD31
:10351C0098470028F4D00028E368B8BF4042FF2841
:10352C00A8BFFF201870ECE740B1C368587810F0C2
:10353C0001001EBF1878B0FA80F040097047EFF315
:10354C001183102383F31288BFF36F8FFEE708B546
:10355C00FFF7F5FF10B51024EFF3118384F31288F5
:10356C00BFF36F8FFFF7E7FCF6E738B58589EFF30C
:10357C001181102282F31288BFF36F8F037C13F03A
:10358C00080404D081F31188BFF36F8F38BD01227A
:10359C00FEF71EFEEB07F9D584F31188BFF36F8F8E
:1035AC000423184602DFF1E7D0E9003213605A60B9
:1035BC000023C0E90033704708B5FFF7F5FF037C23
:1035CC0023F0020303740023836008BD10B5EFF3EE
:1035DC001184102383F31288BFF36F8FFEF76EFDF7
:1035EC0084F31188BFF36F8F10BDFEF767BD08B56C
:1035FC00037C014613F0280F0CD183680BB1FFF745
:10360C00DBFF0B7C084623F004030B74BDE8084079
:10361C00FEF754BD08BD38B50446EFF311851023F1
:10362C0083F31288BFF36F8FFFF72EF818B9A4F14C
:10363C001800FFF7DCFF85F31188BFF36F8F38BDDF
:10364C000846FEF77BBD08B50246FEF733FF70B1A6
:10365C00D0E904319B1A61EBE272B3F1004F72F1C5
:10366C00000104DA002AACBF1846002008BD6FF038
:10367C000040FBE70A44914200F1FF3300D1704750
:10368C0010B511F8014B03F8014F9142F9D110BD5F
:10369C0002440346934200D1704703F8011BF9E73B
:1036AC0010B5024601448A42134603D01C780132FD
:1036BC00002CF8D1181A10BDF0B5C3F13707044629
:1036CC00FFB203F01F031046082BE6B233D0102BC9
:1036DC003ED06508A40844EA817445EAC1752D19E9
:1036EC004FEA910242EB5102290941EA02716D182D
:1036FC0042EB1212290A41EA02616D1842EB1222C6
:10370C00290C41EA02416D1842EB1242AD1842F10C
:10371C000002EC0844EA4274D10804EB8402A6EBE4
:10372C004205EDB2092D0CD90134A5F10A0541F180
:10373C000001EDB212E0E40844EA417406F007051A
:10374C00C908303554EA010200F8015BBCD1F0BD68
:10375C00240944EA017406F00F050909092D84BFF8
:08376C00ED19EDB2EDE70000DC
:083774003CCBFF7F01000000C7
:10377C00000000002C380008E105000800000000E3
:10378C000000000048380008000000006039000804
:10379C000000000044390008000000000C3900084B
:1037AC0000000000983900080000000028390008CB
:1037BC00000000007C39000800000000F038000810
:1037CC0000000000D438000800000000B8380008E1
:1037DC00000000009C380008000000008038000841
:1037EC000000000064380008F52F000800000000FD
:1037FC0000000000D039000800000000B4390008B7
:10380C005516000800000000951A00080000000082
:10381C0019120008000000008905000800000000D3
:10382C005746000800000000743E00087800002491
:10383C0000000000B91300080000000064460008F6
:10384C003C400008643E00087A00002400000000A0
:10385C00000000000000000055410008D03E0008A8
:10386C00903E00086000002434020024FD0500088E
:10387C000000000063410008E43E0008903E000890
:10388C006200002440020024FD0500080000000036
:10389C0071410008F83E0008903E000864000024C6
:1038AC004C020024FD050008000000007F410008C8
:1038BC000C3F0008903E00086600002458020024CB
:1038CC00FD050008000000008D410008203F0008A5
:1038DC00903E00086800002464020024FD050008E6
:1038EC00000000009B410008343F0008903E000897
:1038FC006A00002470020024FD050008000000008E
:10390C00A9410008483F0008903E00086C000024C4
:10391C007C020024FD05000800000000B7410008EF
:10392C005C3F0008903E00086E00002488020024D2
:10393C00FD05000800000000C5410008703F0008AC
:10394C00903E00087000002494020024FD0500083D
:10395C0000000000D3410008843F0008903E00089E
:10396C0072000024A0020024FD05000800000000E5
:10397C00E1410008983F0008903E000874000024C4
:10398C00AC020024FD0500080000000039460008C8
:10399C000000000000000000760000240000000081
:1039AC003D12000800000000754600084040000869
:1039BC00B43E00087C00002414000024E918000820
:1039CC00000000008546000888400008B43E00084E
:1039DC007E00002420000024E918000800000000EC
:1039EC0000000000272F000800000000272F00080F
:1039FC0000000000272F000800000000272F0008FF
:103A0C0000000000272F000800000000272F0008EE
:103A1C00B546000881120008B34600088112000860
:103A2C00B146000881120008AF4600088112000858
:103A3C00AD4600088112000800000000272F000886
:103A4C0000000000272F000800000000272F0008AE
:103A5C0000000000272F000800000000272F00089E
:103A6C0000000000272F000800000000272F00088E
:103A7C0000000000272F000800000000272F00087E
:103A8C0000000000272F000800000000272F00086E
:103A9C0000000000272F0008AB4600088112000828
:103AAC0000000000272F000800000000272F00084E
:103ABC0000000000272F000800000000272F00083E
:103ACC0000000000272F000800000000272F00082E
:103ADC0000000000272F000800000000272F00081E
:103AEC0000000000272F000800000000272F00080E
:103AFC0000000000272F000800000000272F0008FE
:103B0C0000000000272F000800000000272F0008ED
:103B1C0000000000272F000800000000272F0008DD
:103B2C00A94600088112000800000000272F000899
:103B3C0000000000272F000800000000272F0008BD
:103B4C0000000000272F000800000000272F0008AD
:103B5C0000000000272F000800000000272F00089D
:103B6C0000000000272F000800000000272F00088D
:103B7C0000000000272F000800000000272F00087D
:103B8C0000000000272F000800000000272F00086D
:103B9C0000000000272F000800000000272F00085D
:103BAC0000000000272F000800000000272F00084D
:103BBC0000000000272F000800000000272F00083D
:103BCC0000000000272F000800000000272F00082D
:103BDC0000000000272F000800000000272F00081D
:103BEC0000000000272F000800000000272F00080D
:103BFC0000000000272F000800000000272F0008FD
:103C0C0000000000272F000800000000272F0008EC
:103C1C0000000000272F000800000000272F0008DC
:103C2C0000000000272F000800000000272F0008CC
:103C3C0000000000272F000800000000272F0008BC
:103C4C0000000000272F000800000000272F0008AC
:103C5C0000000000272F000800000000272F00089C
:103C6C0000000000272F000800000000272F00088C
:103C7C0000000000272F000800000000272F00087C
:103C8C0000000000272F000800000000272F00086C
:103C9C0000000000272F000800000000272F00085C
:103CAC0000000000272F000800000000272F00084C
:103CBC0000000000272F000800000000272F00083C
:103CCC0000000000272F000800000000272F00082C
:103CDC0000000000272F000800000000272F00081C
:103CEC0000000000272F000800000000272F00080C
:103CFC0000000000272F000800000000272F0008FC
:103D0C0000000000272F000800000000272F0008EB
:103D1C0000000000272F000800000000272F0008DB
:103D2C0000000000272F000800000000272F0008CB
:103D3C0000000000272F000800000000272F0008BB
:103D4C0000000000272F000800000000272F0008AB
:103D5C0000000000272F000800000000272F00089B
:103D6C0000000000272F000800000000272F00088B
:103D7C0000000000272F000800000000272F00087B
:103D8C0000000000272F000800000000272F00086B
:103D9C0000000000272F000800000000272F00085B
:103DAC0000000000272F000800000000272F00084B
:103DBC0000000000272F000800000000272F00083B
:103DCC0000000000272F000800000000272F00082B
:103DDC0000000000272F000800000000272F00081B
:103DEC0000000000272F000800000000272F00080B
:103DFC0000000000272F000800000000272F0008FB
:103E0C0000000000272F000800000000272F0008EA
:103E1C0000000000272F000800000000272F0008DA
:103E2C0000000000272F000800000000272F0008CA
:103E3C0000000000272F000800000000272F0008BA
:103E4C0000000000272F000800000000272F0008AA
:083E5C0000000000272F000800
:103E6400D3310008F33100080F3200082D32000866
:103E740087300008CB30000800000000CD12000895
:103E84003F31000800000000F9300008292E000826
:103E94002F2E0008352E00083B2E0008472E000860
:103EA400412E000800000000000000000000000097
:103EB400FD320008C73200086D320008C51700083B
:043EC4001F330008A0
:103EC800F400000002000000FFFF00000028025874
:103ED8000A000000E000000000040000FFFF0000EE
:103EE8000024025809000000E00000000002000061
:103EF800FFFF00000020025808000000E00000005A
:103F080000010000FFFF0000001C0258070000002D
:103F1800E000000080000000FFFF000000180258C9
:103F280006000000E000000040000000FFFF000065
:103F38000014025805000000E00000002000000006
:103F4800FFFF00000010025804000000E00000001D
:103F580010000000FFFF0000000C025803000000E2
:103F6800E000000008000000FFFF00000008025801
:103F780002000000E000000004000000FFFF000055
:103F88000004025801000000E000000002000000E8
:103F9800FFFF00000000025800000000E0000000E1
:103FA800010000007C390008603900084439000825
:103FB800283900080C390008F0380008D4380008FF
:103FC800B83800089C3800088038000864380008B1
:103FD80005000000E03F000800000008EF4100086D
:103FE8002800020600000024F541000824000B11F7
:103FF8000000F01FFA4100082400041100000430FA
:10400800014200081A000811000004300E4200089E
:104018000E0004011C42000800000090000000107F
:1040280000000002000000240000000000000B0651
:104038000400002400440258000C00582C380008E2
:104048004838000883130000684000080100000099
:1040580000000000000000000000000070400008A0
:10406800F40000000800000078400008010000008B
:104078008040000802000000C1500400E150000028
:10408800004800402C380008483800081212000088
:10409800B04000080100000000000000000000001F
:1040A80000000000B8400008E8000000000004001C
:1040B800C040000801000000C840000802000000DD
:1040C800034F0400234F00007C3700087C370008AA
:1040D800143800081C380008243800082C38000858
:1040E800010002000400060008000A000C0010008D
:1040F80020004000800000010001000100010001D3
:1041080048656C6C6F2C20576F726C643A2025647C
:104118000A002A2A2A20426F6F74696E67205A653E
:1041280070687972204F53206275696C6420763408
:104138002E342E302D363438302D676162313838C0
:1041480034613530663337202A2A2A0A00677069B5
:104158006F403538303232383030006770696F4020
:104168003538303232343030006770696F40353856
:10417800303232303030006770696F403538303255
:1041880031633030006770696F403538303231380C
:104198003030006770696F40353830323134303034
:1041A800006770696F403538303231303030006721
:1041B80070696F403538303230633030006770696D
:1041C8006F403538303230383030006770696F40B2
:1041D8003538303230343030006770696F403538E8
:1041E80030323030303000464C4153480053524151
:1041F8004D0053595354454D005352414D5F45545A
:10420800485F425546005352414D5F4554485F440C
:10421800455343006D656D6F7279403930303030E9
:104228003030300072302F61313A2020307825301C
:104238003878202072312F61323A202030782530AA
:104248003878202072322F61333A20203078253098
:1042580038780A0072332F61343A202030782530BC
:104268003878207231322F69703A20203078253022
:104278003878207231342F6C723A2020307825300B
:1042880038780A0020787073723A20203078253008
:1042980038780A004661756C74696E6720696E73B8
:1042A8007472756374696F6E206164647265737388
:1042B80020287231352F7063293A2030782530381C
:1042C800780A00556E68616E646C656420495251C5
:1042D8006E3A2025640A002A2A2A2A2A204D505597
:1042E800204641554C54202A2A2A2A2A0A002020EE
:1042F800537461636B696E67206572726F722028F0
:10430800636F6E746578742061726561206D69678A
:104318006874206265206E6F742076616C69642908
:104328000A002020556E737461636B696E6720659F
:1043380072726F720A0020204461746120416363C5
:104348006573732056696F6C6174696F6E0A00201B
:10435800204D4D46415220416464726573733A2082
:10436800307825780A002020496E7374727563745A
:10437800696F6E204163636573732056696F6C6162
:1043880074696F6E0A002020466C6F6174696E67ED
:104398002D706F696E74206C617A79207374617402
:1043A8006520707265736572766174696F6E2065D9
:1043B80072726F720A002A2A2A2A2A205553414704
:1043C80045204641554C54202A2A2A2A2A0A0020E8
:1043D800204469766973696F6E206279207A657204
:1043E8006F0A002020556E616C69676E6564206DE8
:1043F800656D6F7279206163636573730A002020AD
:104408004E6F20636F70726F636573736F7220698C
:104418006E737472756374696F6E730A0020204935
:104428006C6C6567616C206C6F6164206F662045F9
:1044380058435F52455455524E20696E746F205050
:10444800430A002020496C6C6567616C20757365B0
:10445800206F662074686520455053520A0020205A
:10446800417474656D707420746F20657865637528
:10447800746520756E646566696E656420696E731F
:104488007472756374696F6E0A002A2A2A2A2A20B0
:10449800425553204641554C54202A2A2A2A2A0A92
:1044A800002020537461636B696E67206572726FB8
:1044B800720A002020507265636973652064617414
:1044C8006120627573206572726F720A0020204243
:1044D80046415220416464726573733A20307825EE
:1044E800780A002020496D707265636973652064DD
:1044F80061746120627573206572726F720A0020A0
:1045080020496E737472756374696F6E2062757377
:10451800206572726F720A005265736572766564FF
:1045280020457863657074696F6E20280053707534
:1045380072696F757320696E746572727570742014
:10454800284952512000535053454C20696E20741D
:104558006872656164206D6F646520646F6573209F
:104568006E6F7420696E646963617465205053507E
:104578000A002A2A2A2A2A2048415244204641551C
:104588004C54202A2A2A2A2A0A00202042757320FD
:104598006661756C74206F6E20766563746F722027
:1045A8007461626C6520726561640A00202044654C
:1045B800627567206576656E740A0020204661750D
:1045C8006C7420657363616C6174696F6E20287305
:1045D80065652062656C6F77290A00415243485F20
:1045E8004558434550542077697468207265617353
:1045F8006F6E2025780A0A002A2A2A2A2A2044656A
:10460800627567206D6F6E69746F72206578636577
:104618007074696F6E202A2A2A2A2A0A002A2A2AEE
:104628002A2A20257320256429202A2A2A2A2A0AA8
:1046380000696E746572727570742D636F6E747232
:104648006F6C6C6572403538303030303030007205
:104658006363403538303234343030007265736506
:10466800742D636F6E74726F6C6C65720073657213
:1046780069616C40353830303063303000736572B2
:1046880069616C403430303034383030006D6169E5
:104698006E00286E756C6C29002A666C6F61742A2E
:1046A800000A0605050401030102010101000100D9
:1046B800092E0008000000007F2F000800000000FD
:1046C800000000001800002400C2010000010300DF
:1046D8002400002400C20100000103000090D00360
:1046E800C8000000FFFFFFFF380000243800002446
:1046F800FF00FF00FF00FF00FF00FF00FF00FF00BA
:10470800FF00FF00FF00FF00FF00FF00FF00FF00A9
:104718000000000000000000000000000000000091
:104728000000000000000000000000000000000081
:0447380015E015E093
:0400000508000C25BE
:00000001FF
